:100000000C9446010C9463010C9463010C946301FD
:100010000C9463010C9463010C9463010C946301D0
:100020000C9463010C9463010C9463010C946301C0
:100030000C943E0D0C9463010C9463010C946301C9
:100040000C94BC070C9463010C94DA0C0C94B30C64
:100050000C9463010C9463010C9463010C94630190
:100060000C9463010C9463010C9463010C94630180
:100070000C9463010C9463010C94D8070C946301F5
:100080000C9463010C9463010C94630100C0C101E2
:10009000C30302C2C60607C705C5C404CC0C0DCDF8
:1000A0000FCFCE0E0ACACB0BC90908C8D81819D968
:1000B0001BDBDA1A1EDEDF1FDD1D1CDC14D4D51598
:1000C000D71716D6D21213D311D1D010F03031F188
:1000D00033F3F23236F6F737F53534F43CFCFD3DB8
:1000E000FF3F3EFEFA3A3BFB39F9F83828E8E929A8
:1000F000EB2B2AEAEE2E2FEF2DEDEC2CE42425E558
:1001000027E7E62622E2E323E12120E0A06061A1C7
:1001100063A3A26266A6A767A56564A46CACAD6D77
:10012000AF6F6EAEAA6A6BAB69A9A86878B8B979E7
:10013000BB7B7ABABE7E7FBF7DBDBC7CB47475B517
:1001400077B7B67672B2B373B17170B05090915107
:100150009353529296565797559594549C5C5D9D37
:100160005F9F9E5E5A9A9B5B995958988848498927
:100170004B8B8A4A4E8E8F4F8D4D4C8C44848545D7
:1001800087474686824243834181804000C1814047
:1001900001C0804101C0804100C1814001C0804157
:1001A00000C1814000C1814001C0804101C0804147
:1001B00000C1814000C1814001C0804100C1814037
:1001C00001C0804101C0804100C1814001C0804127
:1001D00000C1814000C1814001C0804100C1814017
:1001E00001C0804101C0804100C1814000C1814007
:1001F00001C0804101C0804100C1814001C08041F7
:1002000000C1814000C1814001C0804101C08041E6
:1002100000C1814000C1814001C0804100C18140D6
:1002200001C0804101C0804100C1814000C18140C6
:1002300001C0804101C0804100C1814001C08041B6
:1002400000C1814000C1814001C0804100C18140A6
:1002500001C0804101C0804100C1814001C0804196
:1002600000C1814000C1814001C0804101C0804186
:1002700000C1814000C1814001C0804100C1814076
:1002800001C0804101C0804100C1814011241FBED6
:10029000CFEFD0E1DEBFCDBF13E0A0E0B1E0E0EEF4
:1002A000F3E202C005900D92A035B107D9F728E01E
:1002B000A0E5B3E001C01D92A73FB207E1F70E949D
:1002C000C4060C94EE110C940000CF93DF9385E0EC
:1002D00090E00E940D0FC2E6D3E09983888380E00E
:1002E00090E00E94290F9B838A8386E090E00E9421
:1002F0000D0F9D838C8387E090E00E940D0F9F83FC
:100300008E8384E090E00E940D0F9987888783E0B8
:1003100090E00E940D0F9B878A8782E090E00E9408
:100320000D0F9D878C8781E090E00E940D0F9F87C5
:100330008E87DF91CF910895E0910C01F0910D012E
:10034000208131812330310589F02430310539F1A4
:100350002230310579F5FC013196E170FF27EE0F6F
:10036000FF1FEE59FC4F808191810895AC014F5FD2
:100370005F4F9A01ABEABAEA0E94D611969587952B
:100380009C01220F331F820F931FFA01E81BF90B08
:10039000EE0FFF1FEE59FC4F808191810895FC0103
:1003A0003196E370FF27EE0FFF1FEE59FC4F80815F
:1003B000918108950895E0910C01F0910D018081E3
:1003C000918183309105F1F084309105F1F102972C
:1003D00009F069C080916203909163038B509F4B39
:1003E000883D904360F420916403309165032B5065
:1003F0003F4B81E0283D304318F080E001C080E0B1
:100400008170089580916203909163038B509F4B9C
:10041000883D9043A8F480916403909165038B50CC
:100420009F4B883D904370F42091660330916703A1
:100430002B503F4B81E0283D304328F080E003C043
:1004400080E001C080E08170089580916203909106
:1004500063038B509F4B883D9043F0F4809164037D
:10046000909165038B509F4B883D9043B8F48091E9
:100470006603909167038B509F4B883D904380F4B7
:1004800020916803309169032B503F4B81E0283D58
:10049000304338F080E005C080E003C080E001C058
:1004A00080E08170089580E00895E0911001F0915E
:1004B0001101808191818530910561F018F40497D4
:1004C00039F008958630910539F0079739F008958D
:1004D000DF980895DC980895DE980895DD980895D2
:1004E000CF93DF93E0910201F091030180818111AC
:1004F0004EC0E0911201F0911301C081D181FE0143
:10050000E370FF27EE0FFF1FEE59FC4F60817181F2
:1005100080E090E00E944E1120E03BE04FE357E482
:100520000E94491118160CF4A6C0CE010E949C012D
:10053000BC0180E090E00E944E1120E03BE04FE3E0
:1005400057E40E94491118163CF0E0910001F09127
:10055000010181E080838FC08091720390917303C9
:10056000892B09F088C0DB9AD89ADF9AE2E6F3E09B
:1005700081E090E0918B808B84E090E0938B828B84
:10058000E0910201F091030181E0808374C0E09169
:100590001201F0911301C081D181FE01E370FF27A8
:1005A000EE0FFF1FEE59FC4F6081718180E090E0FB
:1005B0000E944E1120E03BE04FE357E40E944911B6
:1005C0001816E4F1CE010E949C01BC0180E090E08D
:1005D0000E944E1120E03BE04FE357E40E94491196
:1005E00018163CF0E0910001F091010181E0808358
:1005F00042C08091720390917303009719F00197A4
:1006000081F039C0DC98DB9AD89ADF9AE2E6F3E011
:1006100081E090E0918B808B84E090E0938B828BE3
:100620002AC0DF98D898DB98DC9AE2E6F3E0118ADA
:10063000108A85E090E0938B828B1DC0E0911001C1
:10064000F09111010190F081E02DE370FF27EE0F92
:10065000FF1FEE59FC4F6081718180E090E00E94A5
:100660004E1120E032EE4FE657E40E94AF1188238E
:1006700014F00E945502DF91CF910895CF92DF923E
:10068000EF92FF92CF93DF93E0910201F09103018B
:100690008081811146C0E0911201F0911301C08167
:1006A000D181FE01E370FF27EE0FFF1FEE59FC4FD3
:1006B0006081718180E090E00E944E1120E03BE07B
:1006C0004FE357E40E94491118160CF4D6C0CE012E
:1006D0000E949C01BC0180E090E00E944E1120E04D
:1006E0003BE04FE357E40E94491118163CF0E091BB
:1006F0000001F091010181E08083BFC0CD2B09F0A2
:10070000BCC0DB9AD89AE0911201F091130181E00C
:1007100090E091838083E0910201F0910301808356
:10072000ACC0E0911201F0911301C081D181FE01B2
:10073000E370FF27EE0FFF1FEE59FC4F60817181C0
:1007400080E090E00E944E116B017C0120E03BE0D4
:100750004FE357E40E9449111816ECF1CE010E94B4
:100760009C01BC0180E090E00E944E1120E03BE043
:100770004FE357E40E94491118163CF0E091000144
:10078000F091010181E0808378C0C130D10579F01A
:1007900018F02297B9F071C0DB9AD89AE091120153
:1007A000F091130181E090E09183808366C0D89836
:1007B000DA9AE0911201F091130182E090E09183C6
:1007C00080835BC0DA98DB98E0911201F09113010D
:1007D0001182108252C020E035EE47E557E4C70190
:1007E000B6010E94491118165CF1C130D10581F0A3
:1007F00018F02297C9F041C00E945502DE9AE0919C
:100800001001F091110186E090E09183808335C062
:100810000E945502DF9AE0911001F091110184E0ED
:1008200090E09183808329C00E945502DC9AE09178
:100830001001F091110185E090E0918380831DC04B
:10084000E0911001F09111010190F081E02DE37031
:10085000FF27EE0FFF1FEE59FC4F6081718180E092
:1008600090E00E944E1120E032EE4FE657E40E94E5
:10087000AF11882314F00E945502DF91CF91FF90B1
:10088000EF90DF90CF900895CF93DF93E091020136
:10089000F0910301808181115DC0E0911201F0911E
:1008A0001301C081D181FE01E370FF27EE0FFF1F0E
:1008B000EE59FC4F6081718180E090E00E944E1102
:1008C00020E03BE04FE357E40E94491118160CF476
:1008D000E9C0CE010E949C01BC0180E090E00E9432
:1008E0004E1120E03BE04FE357E40E9449111816F7
:1008F0003CF0E0910001F091010181E08083D2C0E1
:10090000209719F0219761F0CDC0DB9AD89AE09139
:100910001201F091130181E090E091838083C2C0C5
:10092000D898DA9ADF9AE0911201F091130182E0EF
:1009300090E091838083E0911001F091110184E0B7
:1009400090E091838083E0910201F091030181E0C6
:100950008083A8C0E0911201F0911301C081D18180
:10096000FE01E370FF27EE0FFF1FEE59FC4F608181
:10097000718180E090E00E944E1120E03BE04FE367
:1009800057E40E94491118160CF46FC0CE010E9462
:100990009C01BC0180E090E00E944E1120E03BE011
:1009A0004FE357E40E94491118163CF0E091000112
:1009B000F091010181E0808375C0C130D105D9F08B
:1009C00030F0C230D10559F12397E9F16BC0DB9AC1
:1009D000D89ADD9AE0911201F091130181E090E044
:1009E00091838083E0911001F091110187E090E004
:1009F0009183808357C0D898DA9ADF9AE0911201E8
:100A0000F091130182E090E091838083E0911001E6
:100A1000F091110184E090E09183808343C0DA98E3
:100A2000D99ADC9AE0911201F091130183E090E0F1
:100A300091838083E0911001F091110185E090E0B5
:100A4000918380832FC0D998DB98DE9AE0911201C0
:100A5000F091130111821082E0911001F0911101C7
:100A600085E090E0918380831DC0E0911001F091BA
:100A700011010190F081E02DE370FF27EE0FFF1FC1
:100A8000EE59FC4F6081718180E090E00E944E1130
:100A900020E032EE4FE657E40E94AF11882314F0B5
:100AA0000E945502DF91CF910895E0910C01F091E1
:100AB0000D01808191818330910541F08430910551
:100AC00041F0029741F40E94700208950E943E0393
:100AD00008950E94440408958BB3807F8BBBE091FE
:100AE0000A01F0910B018081918182309105F9F02A
:100AF00028F4009751F0019781F008958330910513
:100B000001F18E3B9A4B39F10895DB98E091120187
:100B1000F0911301118210820895D89AE091120188
:100B2000F091130181E090E0918380830895DA9A37
:100B3000E0911201F091130182E090E091838083B3
:100B40000895D99AE0911201F091130183E090E0A9
:100B5000918380830895E0911201F09113018EEB4F
:100B60009AEB9183808308958BB38F708BBBE09158
:100B70000801F0910901808191818630910511F180
:100B800030F48430910551F0059791F00895873045
:100B9000910511F18E3B9A4B49F10895DB9AE09152
:100BA0001001F091110184E090E091838083089519
:100BB000DC9AE0911001F091110185E090E09183C1
:100BC00080830895DE9AE0911001F091110186E092
:100BD00090E0918380830895DD9AE0911001F09177
:100BE000110187E090E0918380830895E0911001E6
:100BF000F09111018EEB9AEB918380830895E0913F
:100C00001201F091130111821082E0911001F09114
:100C100011018EEB9AEB91838083E0910E01F091AC
:100C20000F011082E0E5F3E022E030E0338322831D
:100C3000358324831782168291878087E09106018D
:100C4000F09107011082E0910401F09105011082FA
:100C5000E0910201F09103011082E0910001F09116
:100C600001011082089581E087BF83E083BF12BE37
:100C70001092B8061092BA061092B90608958AB377
:100C80008FEF8ABB8BB31BBA0895CF93DF93CDB799
:100C9000DEB7C253D1400FB6F894DEBF0FBECDBF52
:100CA00031E03B8381E18C831D821E8295E29F832C
:100CB0009887898797E49A878B879C871D8699E90F
:100CC0009E8791E69F8799ED988B198A2BE02A8B56
:100CD00092E09B8B8C8B1D8A3E8B88EB8F8B288FB1
:100CE00087E0898F83E08A8F9B8F1C8E1D8E1E8EDE
:100CF0008AE190E09A838983CE0101960E949D103B
:100D0000CE5CDE4F0FB6F894DEBF0FBECDBFDF91D5
:100D1000CF910895EF920F931F93F8940E943F068E
:100D200087E090E00E94620F0E94020F0E9433064B
:100D30000E94FF050E9465014BEB56E06FE071E1F8
:100D400086E491E090E00E948310E12C00E012EC38
:100D500021E030E040E06AE080E00E94180B8093E0
:100D6000B70623E030E04CE451E061E084E30E9408
:100D7000C60A8093B7060E947B0B8093B7067894CF
:100D80001F910F91EF9008950E948A060E944506D8
:100D9000C1E00E94DB01882331F0E0910001F09175
:100DA0000101108205C0E0910001F0910101C083B2
:100DB000F8948091B8068C3121F41092B8060E9404
:100DC00065017894F8948091B9069091BA06803EB6
:100DD000910531F41092BA061092B9060E94DA1009
:100DE00078940E948A0BE0910001F09101018081CA
:100DF00081110AC0E0910E01F0910F0180818111F3
:100E00000BC00E945505C5CFE0910E01F0910F0176
:100E10008081882309F4BDCFE0910401F0910501A0
:100E20008081882309F4B5CF0E946C050E94B40527
:100E3000E0910401F09105011082ABCFCF93DF93D5
:100E4000603325E7720708F19B01240F351F2B3310
:100E50003547E8F441155105E1F0FC01660F771FB5
:100E6000DB01AE5FB64E440F551F480F591FED0111
:100E700011969C9111979083988112969183329646
:100E8000E417F507A1F780E005C081E003C081E029
:100E900001C080E0DF91CF910895CF93DF932223AB
:100EA00019F0213041F156C060342CE9720708F482
:100EB00053C09B01240F351F2A343C4908F04EC013
:100EC0004115510509F44CC0DC01FB01EE0FFF1F79
:100ED000E053F543440F551F480F591F91819C93D0
:100EE0009081329611969C9311971296A417B5078C
:100EF000A9F780E03AC060342CE9720798F19B01B1
:100F0000240F351F2A343C4978F541155105D1F09D
:100F1000DC01FB01EE0FFF1FE053F543440F551FAB
:100F2000840F951F2C9130E0322F222731832083AC
:100F300011964C911197242B219331931296A81757
:100F4000B90781F7E0910401F091050181E0808308
:100F500080E00BC080E009C081E007C081E005C0EF
:100F600080E003C081E001C081E0DF91CF9108956E
:100F700081E0089581E008951F920F920FB60F92BD
:100F800011248F939F938091B8068F5F8093B8064A
:100F90008091B9069091BA0601969093BA06809313
:100FA000B9069F918F910F900FBE0F901F901895CB
:100FB0001F920F920FB60F9211242F933F934F93CE
:100FC0005F936F937F938F939F93AF93BF93EF93B1
:100FD000FF9380919C000E94EA0EFF91EF91BF91D8
:100FE000AF919F918F917F916F915F914F913F91C1
:100FF0002F910F900FBE0F901F9018951F93CF93B6
:10100000DF93DB012D913C912530310509F057C06C
:10101000FC01438150E0542F44272481422B9A0144
:10102000215031092F3C374008F04BC0DC011196AC
:101030003C91119712962C911297FB01118210820C
:10104000E1E0EC93DB01ED91FC9111973196ED938A
:10105000FC93FA01E770FF27EF2B51F0FA01F695A8
:10106000E795F695E795F695E79511E01E0F08C010
:10107000FA01F695E795F695E795F695E7951E2F13
:10108000EB01FC011183688179816F5F7F4F798368
:101090006883622F70E0732B6F5F7F4F20E00296B2
:1010A0000E94BA07882319F00E940A0B0BC088819E
:1010B0009981810F911D9983888380E003C083E02B
:1010C00001C083E0DF91CF911F910895CF93DF930B
:1010D00000D0CDB7DEB7FB0120813181253031054D
:1010E00011F5FC012481211120C023813FEF320F33
:1010F0003E3FE8F0318162811A822F3F19F481E08E
:10110000898301C0198270E0732B6F5F7F4F21E0EC
:1011100041E050E0CE0101960E94BA07882349F0D1
:101120000E940A0B07C083E005C083E003C083E090
:1011300001C080E00F900F90DF91CF910895CF9381
:10114000DF93FB012081318126303105E8F1FC017C
:10115000438150E0542F44272481422B9A01277069
:101160003327232B49F09A013695279536952795F5
:10117000369527952F5F07C09A01369527953695A6
:10118000279536952795FA013197E03BF740F0F423
:10119000FC01358123131CC0EB01618170E0762FC7
:1011A00066272281622B6F5F7F4F21E006960E94A7
:1011B000BA07882319F00E940A0B0BC085E090E063
:1011C0009983888380E005C083E003C083E001C089
:1011D00083E0DF91CF9108951F93CF93DF93DB01DD
:1011E0002D913C912530310509F056C0FC01438119
:1011F00050E0542F44272481422B9A012150310979
:101200002F3C374008F04AC0DC0111963C91119701
:1012100012962C911297FB0111821082E2E0EC935E
:10122000DB01ED91FC9111973196ED93FC93FA015E
:10123000E770FF27EF2B51F0FA01F695E795F69549
:10124000E795F695E79511E01E0F08C0FA01F695AF
:10125000E795F695E795F695E7951E2FEB01FC01CE
:101260001183688179816F5F7F4F79836883622FF3
:1012700070E0732B6F5F7F4F02960E94B807882340
:1012800019F00E940A0B0BC088819981810F911D72
:101290009983888380E003C083E001C083E0DF910D
:1012A000CF911F910895FB012081318125303105B7
:1012B000A1F4FC01618170E0762F66272281622B08
:1012C0006F5F7F4F21E041E050E003960E944D07A1
:1012D000882329F00E940A0B089583E0089580E096
:1012E0000895CF93DF93FB012081318126303105B2
:1012F00050F1FC01438150E0542F44272481422BBC
:101300009A012150310928373105F8F43581242F0D
:10131000220F32131CC0EB01618170E0762F66272B
:101320002281622B6F5F7F4F21E006960E944D075E
:10133000882319F00E940A0B0BC085E090E0998386
:10134000888380E005C083E003C083E001C083E0C0
:10135000DF91CF9108950F931F93CF93DF93FB01FC
:101360002081318125303105B1F5FC012481022F26
:1013700010E0A801415051094D37510570F5EB01BE
:10138000318162811982188283E08083888199810A
:10139000019699838883220F218388819981019600
:1013A0009983888370E0732B6F5F7F4F20E0A801E3
:1013B000CF0102960E944D07882319F00E940A0B64
:1013C0000DC0000F111F88819981080F191F198303
:1013D000088380E003C083E001C083E0DF91CF9108
:1013E0001F910F910895CF92DF92EF92FF920F938A
:1013F0001F93CF93DF93FB01208131812A30310588
:1014000008F466C0FC01C381D0E0DC2FCC27248126
:10141000C22B9E01215031092D37310508F05AC0E9
:10142000478150E0542F44272085422B9A012150B8
:1014300031092937310508F04FC0218530E0FA0124
:10144000EE0FFF1FE217F30709F048C08B017C0184
:10145000FC01C180D280658170E0762F662786818D
:10146000682B6F5F7F4F21E0C7010A960E944D07EE
:10147000811136C0F8011182108287E1F701808363
:10148000F801808191810196918380838C2F880F50
:10149000F7018183F8018081918101969183808396
:1014A0006D2D70E07C296F5F7F4F20E0AE01C7019A
:1014B00002960E944D07811113C0CC0FDD1FF80169
:1014C000808191818C0F9D1F9183808380E00AC071
:1014D00080E008C083E006C083E004C083E002C06F
:1014E0000E940A0BDF91CF911F910F91FF90EF9017
:1014F000DF90CF9008950F931F93CF93DF93FB015D
:101500002081318125303105C9F5FC01038110E0CE
:10151000102F00272481022B9801215031092C37EC
:10152000310570F5EB01218162811982188284E016
:10153000808388819981019699838883802F880F81
:1015400081838881998101969983888370E0722BC9
:101550006F5F7F4FA801CF0102960E941E0788236C
:1015600019F00E940A0B0DC0000F111F888199818C
:10157000080F191F1983088380E003C083E001C0AE
:1015800083E0DF91CF911F910F910895CF93DF9367
:10159000E9012296C032D105F0F48093780382E00D
:1015A00090E0909377038093760381E0611101C00E
:1015B00080E08195809379032115310571F0BA019E
:1015C000A9018AE793E00E94E511D0937703C093C5
:1015D000760380E003C084E001C080E0DF91CF911A
:1015E00008950F931F93CF93DF938B01C0917603E0
:1015F000D0917703AE0168E773E001960E94E51190
:101600002196F801D183C08380E0DF91CF911F91B3
:101610000F910895813021F048F0873019F004C00F
:1016200082E0089586E0089584E0089580E00895BA
:10163000CF92DF92EF92FF920F931F93CF939FEF82
:10164000960F973F08F04BC05E2D68017901742F0B
:10165000962F6093A903811137C02FE93DE03093A5
:10166000A6032093A5032AEA3DE03093A403209328
:10167000A3032BEE3DE03093A8032093A70323EBB5
:101680003DE03093A2032093A1031092A003109297
:101690009F032BE33EE03093F2072093F10721E90B
:1016A0003EE03093EE072093ED072FEC3EE03093C1
:1016B000F0072093EF07052FA7019601672F892FC9
:1016C0000E94650DC82F01C0C2E0C1110BC00E946D
:1016D0005E0C882331F081E08093440103C0C2E0B6
:1016E00001C0C3E08C2FCF911F910F91FF90EF901D
:1016F000DF90CF90089580914401813049F4E091CA
:10170000A503F091A60309951092440180E0089585
:1017100086E00895CF93DF931F92CDB7DEB7809117
:101720004401811199C0CE0101960E94690C81305B
:1017300009F094C08981813019F08230D9F090C0CD
:10174000E091A103F091A2034AE953E06CE973E050
:101750008EE993E00995811185C080919E03909157
:10176000A903891711F081117FC082E00E94620CE9
:1017700080E080C0A0919C03B0919D034C91409368
:10178000990381E08093980390911401992309F4BF
:101790006DC0491759F0E7E1F1E021E030E09081B8
:1017A000992309F463C049131AC002C020E030E055
:1017B000F901EE0FFF1F2E0F3F1FF901EC5EFE4FE8
:1017C0000180F281E02D6AE973E0CD0109958093F3
:1017D000980390919E03911109C080E04BC02F5F48
:1017E0003F4F339620313105D1F640C0882319F19F
:1017F00001C081E0E0919C03F0919D0321E030E085
:1018000030939B0320939A0390919903906890835F
:1018100040919C0350919D0320919A0330919B032A
:10182000B9016F5F7F4F70939B0360939A03FA0136
:10183000E20FF31F808340919A0350919B036091C4
:101840009C0370919D03E091A703F091A803809100
:10185000A903099580E00EC086E00CC080E00AC0B4
:1018600080E008C080E006C080E004C080919E0354
:101870008111BFCF0F90DF91CF9108956115710550
:10188000B9F0DC01680F791F9FEF4FEF8D91892729
:10189000282F30E0F901E457FE4F8491982F9427C8
:1018A000F901E457FF4F4491A617B70779F702C033
:1018B0009FEF4FEF892F90E0942B08951092AA0389
:1018C00081E0089591E09093AA038093AB0381E0B7
:1018D0000895FC019091AA03992339F08091AB03FC
:1018E00080831092AA0381E0089580E00895539ABE
:1018F000882321F08AB180698AB903C08AB18F76C2
:101900008AB9662321F08AB188628AB90895559808
:101910000895DB01CA01880F991FAA1FBB1F880FFA
:10192000991FAA1FBB1F9C01AD01220F331F441F2B
:10193000551F220F331F441F551F60E070E880E7DA
:1019400090E00E94B411215029B960E080E00E942B
:10195000770C81E008958CB981E008952CB1FC01E9
:10196000208381E008951F920F920FB60F921124E9
:101970002F933F934F935F936F937F938F939F9397
:10198000AF93BF93EF93FF93E091ED07F091EE07D4
:101990000995FF91EF91BF91AF919F918F917F91A9
:1019A0006F915F914F913F912F910F900FBE0F90CC
:1019B0001F9018951F920F920FB60F9211242F931C
:1019C0003F934F935F936F937F938F939F93AF93C7
:1019D000BF93EF93FF93E091F107F091F207099520
:1019E000FF91EF91BF91AF919F918F917F916F91F7
:1019F0005F914F913F912F910F900FBE0F901F90CD
:101A000018959C01A0E2BCE10E94D61120E23EE4C0
:101A100040E050E00E94B4113093AD032093AC033A
:101A20001FBC1EBC10927A008EB58A7F8EBD87B710
:101A30008F7E87BF86B7806186BF81E008951DBC19
:101A40001CBC8091AC039091AD03892B49F087B702
:101A5000806187BF8091AC039091AD039BBD8ABD2F
:101A60008EB585608EBD08958EB58A7F8EBD87B791
:101A70008F7E87BF86B7806186BF08951F920F92C1
:101A80000FB60F9211242F933F934F935F936F9351
:101A90007F938F939F93AF93BF93EF93FF93E091C7
:101AA000EF07F091F0070995FF91EF91BF91AF918A
:101AB0009F918F917F916F915F914F913F912F9166
:101AC0000F900FBE0F901F901895CF92DF92EF925C
:101AD000FF920F93862F69017A01F89428E0B701ED
:101AE000A6010E94890C813001F581E0C8168BE4C3
:101AF000D806E104F10478F4A7019601220F331F00
:101B0000441F551F60EA7FE787E190E00E94B4110F
:101B1000DA01C90104C083E290E0A0E0B0E00E94D5
:101B2000010D813021F083E003C083E001C080E03B
:101B300078940F91FF90EF90DF90CF900895F894F4
:101B40001092B40360E081E00E94770C0E941F0DA8
:101B500078940895F89460E080E00E94770C0E94E9
:101B6000340D78940895EF92FF920F931F93CF93C3
:101B7000DF93F8942091AE033091AF032430310508
:101B8000F8F07A018B01EC016091AE037091AF0324
:101B900087EF97E00E943E0C892BA1F48091F70714
:101BA00088838091AE039091AF030397F7019183EF
:101BB000808388EF97E0F8019183808380E003C001
:101BC00085E001C085E07894DF91CF911F910F915E
:101BD000FF90EF900895F8949091B403913009F03C
:101BE00047C0282FCB0101979093B3038093B20392
:101BF00061E070E07093B1036093B003FC01208357
:101C00002091B0033091B103420F531F5093B103A1
:101C10004093B0036091B0037091B1030E943E0CF9
:101C2000492F2091B0033091B103B9016F5F7F4F0D
:101C30007093B1036093B003F901E950F84F8083CA
:101C40008091B0039091B1039C012F5F3F4F30937F
:101C5000B1032093B003FC01E950F84F408381E0C9
:101C60008093B50361E080E00E94770C80E001C0C2
:101C700085E078940895CF93DF931F92CDB7DEB7B8
:101C8000CE0101960E94AE0C8091B403813061F0C8
:101C900028F0823019F1833021F03EC00E941F0DE0
:101CA0003BC00E941F0D38C01092AF031092AE03CC
:101CB0008091AE039091AF039C012F5F3F4F309313
:101CC000AF032093AE032981FC01E950F84F208334
:101CD00082E08093B4030E941F0D1EC08091AE036A
:101CE0009091AF038F3F910509F088F48091AE0386
:101CF0009091AF039C012F5F3F4F3093AF03209330
:101D0000AE032981FC01E950F84F208303C083E032
:101D10008093B4030E941F0D80E00F90DF91CF915C
:101D20000895CF938091B503882319F0813039F05D
:101D300032C060E081E00E94770CC0E02DC080914D
:101D4000B0039091B103892BD9F0E091B203F091E7
:101D5000B30380810E94AB0C8091B2039091B303D6
:101D600001969093B3038093B2038091B003909156
:101D7000B10301979093B1038093B003C0E00CC00E
:101D800083E00E94620CC82F60E081E00E94770C23
:101D90001092B50301C0C0E08C2FCF910895CF936E
:101DA0008091B403882319F0823031F00AC080E0BA
:101DB0000E94620CC82F06C081E00E94620CC82FEE
:101DC00001C0C0E00E94340D81E08093B4038C2FE9
:101DD000CF910895E091370491E09E0F9F77209175
:101DE0003604921769F0F0E0EA54FC4F8083909338
:101DF0003704E8E3F4E080818F5F808381E0089519
:101E000080E0089587E087BB8EEF84BB84E58DB9C1
:101E1000C09A85B38E6F85BB089595B321E030E0FD
:101E200002C0220F331F8A95E2F7822F80959823F4
:101E300095BB1FB8779BFECF8FB190E0982F882776
:101E40001FB8779BFECF3FB145B3242B25BB832B17
:101E5000089598B321E030E002C0220F331F8A9525
:101E6000E2F7822F8095982398BB1FB8779BFECF0F
:101E70008FB190E0982F88271FB8779BFECF3FB196
:101E800048B3242B28BB832B08955D9BFECFFC0118
:101E900080818CB908950F931F93CF93DF936115C1
:101EA000710559F08C01EC01060F171FCE010E943D
:101EB000450F21960C171D07C9F7DF91CF911F9190
:101EC0000F910895909398008093990082E08093F9
:101ED0009B0088E980939A0086E080939D00089596
:101EE000DC01EBE9F0E0908195FFFDCF8C918093D0
:101EF0009C000895EF92FF920F931F93CF93DF936F
:101F00006115710579F07B018C01EC01060F171F3B
:101F1000CE010E94700F2196C017D107C9F78E2DF0
:101F20009F2D02C080E090E0DF91CF911F910F9133
:101F3000FF90EF90089561157105A1F0DC01680F25
:101F4000791F252F33279D91FA01E927FF27EE0FEF
:101F5000FF1FE15BFE4F4081518142275327A617A7
:101F6000B70779F7CA0108950E949B0F21E0883BCB
:101F7000904F09F020E0822F0895E9E3F4E02285F4
:101F8000338544855585241735075CF44685578588
:101F9000B9016F5F7F4F73876287FA01E20FF31F0A
:101FA00080830895E9E3F4E01182108213821282A3
:101FB0001782168215821482918780871386128673
:101FC0001786168615861486089520913904309157
:101FD0003A04232B89F42091410430914204232BAD
:101FE00069F0E9E3F4E0978386837583648381E095
:101FF00090E091838083089580E0089580E00895C3
:102000000F931F93CF93DF93EA018901E9E3F4E093
:1020100097878687138612867587648780EC0E946F
:10202000BD0F01151105D1F08881803C19F08B3D61
:1020300041F00DC08BED0E94BD0F8CED0E94BD0FD5
:1020400009C08BED0E94BD0F8DED0E94BD0F8881F0
:102050000E94BD0F21960150110931F780EC0E94BA
:10206000BD0FE9E3F4E08285938524853585281743
:10207000390714F48FEF9FEFDF91CF911F910F91EC
:1020800008950F931F93CF93DF936430710564F12C
:10209000EB014FEF5FEF0E94B40F8823C1F0E09196
:1020A000B506F091B6063097F9F00FEA16E0D801C0
:1020B00014968D919C911597BE0164507109DC01B5
:1020C0006D937C930995F801958384830DC0EFEAA5
:1020D000F6E080819181A281B3810196A11DB11D9D
:1020E00080839183A283B3838091B3069091B406D9
:1020F000009711F0029602C080E090E0DF91CF914E
:102100001F910F910895CF93DF93EA01EFEAF6E074
:1021100010821182128213827783668355834483EF
:1021200081E490E10E94D20F60E371E0CE0102965B
:102130000E94E50FDF91CF9108950F931F93CF93E6
:10214000DF93009769F1EC018C010E5F1F4F6881EE
:1021500079816E5F7F4F4FEF5FEFC8010E949B0F49
:102160008095909528813981C20FD31F8C839D83E0
:102170002C5F3F4FA80166E672E089E494E00E947C
:102180000010181619065CF4BC0189E494E00E9462
:102190007A0F181619063CF08FEF9FEF06C005C0A6
:1021A0008FEF9FEF02C081E090E0DF91CF911F9110
:1021B0000F910895CF93DF93CDB7DEB7C253D140CF
:1021C0000FB6F894DEBF0FBECDBF83E08B8381E0F6
:1021D0008C8385E28D8384E38E8382E18F831886EE
:1021E00019861A861B86CF5CDE4F1882C153D140F8
:1021F000CE5CDE4F1882C253D14087E090E09A83D4
:102200008983CE0101960E949D10CE5CDE4F0FB6F1
:10221000F894DEBF0FBECDBFDF91CF910895CF936D
:10222000DF93EC018A81813019F0833079F025C089
:102230008B81823131F0833101F585E491E00E9498
:10224000450F85E491E00E94450F17C08B818430D3
:1022500059F0863061F0823081F468817981CE0155
:1022600004960E944B0F09C00E94DA1006C06881D4
:102270007981CE0104960E944B0F82E391E0FE012A
:102280009C01119221503040E1F7CE01DF91CF91B6
:1022900008950E948B1108F481E00895E89409C024
:1022A00097FB3EF490958095709561957F4F8F4F89
:1022B0009F4F9923A9F0F92F96E9BB279395F6959F
:1022C000879577956795B795F111F8CFFAF4BB0F1D
:1022D00011F460FF1BC06F5F7F4F8F4F9F4F16C081
:1022E000882311F096E911C0772321F09EE8872F0B
:1022F000762F05C0662371F096E8862F70E060E0C7
:102300002AF09A95660F771F881FDAF7880F96953F
:10231000879597F90895990F0008550FAA0BE0E8E3
:10232000FEEF16161706E807F907C0F01216130697
:10233000E407F50798F0621B730B840B950B39F4D7
:102340000A2661F0232B242B252B21F408950A263D
:1023500009F4A140A6958FEF811D811D08950E946B
:102360008B1108F48FEF0895A1E21A2EAA1BBB1B54
:10237000FD010DC0AA1FBB1FEE1FFF1FA217B30751
:10238000E407F50720F0A21BB30BE40BF50B661F67
:10239000771F881F991F1A9469F76095709580952B
:1023A00090959B01AC01BD01CF010895A29FB001A2
:1023B000B39FC001A39F700D811D1124911DB29F79
:1023C000700D811D1124911D0895FB01DC0102C0D7
:1023D00001900D9241505040D8F70895F894FFCFE6
:1023E00060035E035C035A03580356035203500311
:1023F0007403720311F10A047B0A03AB091071091B
:1024000006530917F30901FE070566080F9F080226
:10241000EC080000000000000000000000000000C8
:102420000000000002C0424C414E4B00AABBCC0051
:1024300000891112239B322446AD573665BF74487C
:102440008CC19D5AAFD3BE6CCAE5DB7EE9F7F8813B
:1024500010080193331A22A5562C47B7753E64C95C
:102460009C408DDBBF52AEEDDA64CBFFF976E8021B
:10247000218B30100299132667AF763444BD554A3C
:10248000ADC3BC588ED19F6EEBE7FA7CC8F5D983FB
:10249000310A2091121803A7772E66B5543C45CB1C
:1024A000BD42ACD99E508FEFFB66EAFDD874C904DB
:1024B000428D5316619F702004A9153227BB364CFC
:1024C000CEC5DF5EEDD7FC6888E1997AABF3BA85BB
:1024D000520C4397711E60A1142805B3373A26CDDC
:1024E000DE44CFDFFD56ECE9986089FBBB72AA069B
:1024F000638F7214409D512225AB343006B9174EBC
:10250000EFC7FE5CCCD5DD6AA9E3B8788AF19B877A
:10251000730E6295501C41A3352A24B1163807CF9B
:10252000FF46EEDDDC54CDEBB962A8F99A708B085A
:102530008481951AA793B62CC2A5D33EE1B7F0408B
:1025400008C919522BDB3A644EED5F766DFF7C892A
:102550009400859BB712A6ADD224C3BFF136E0C16B
:10256000184809D33B5A2AE55E6C4FF77D7E6C0A0A
:10257000A583B4188691972EE3A7F23CC0B5D1424B
:1025800029CB38500AD91B666FEF7E744CFD5D8BEA
:10259000B502A499961087AFF326E2BDD034C1C32B
:1025A000394A28D11A580BE77F6E6EF55C7C4D0CCA
:1025B000C685D71EE597F42880A1913AA3B3B2440B
:1025C0004ACD5B5669DF78600CE91D722FFB3E8DAA
:1025D000D604C79FF516E4A9902081BBB332A2C5EB
:1025E0005A4C4BD7795E68E11C680DF33F7A2E0E8A
:1025F000E787F61CC495D52AA1A3B03882B19346CB
:102600006BCF7A5448DD59622DEB3C700EF91F8F69
:10261000F706E69DD414C5ABB122A0B9923083C7AA
:102620007B4E6AD5585C49E33D6A2CF11E780F0059
:00000001FF
